{
	"data": {
		"bytecode": {
			"linkReferences": {},
			"object": "608060405234801561001057600080fd5b50610b81806100206000396000f3fe608060405234801561001057600080fd5b50600436106100935760003560e01c80638e09dbbe116100665780638e09dbbe146100fa578063a1b757c414610116578063bf02d3a514610134578063d90995cb14610150578063f797a8191461016e57610093565b806321107c93146100985780632cefeb07146100b657806355d0d844146100d25780638bb5c7a3146100dc575b600080fd5b6100a06101a0565b6040516100ad919061077c565b60405180910390f35b6100d060048036038101906100cb91906108e7565b61022e565b005b6100da610248565b005b6100e4610405565b6040516100f1919061077c565b60405180910390f35b610114600480360381019061010f9190610966565b610493565b005b61011e61049d565b60405161012b91906109a2565b60405180910390f35b61014e600480360381019061014991906108e7565b6104a3565b005b6101586104bd565b604051610165919061077c565b60405180910390f35b610188600480360381019061018391906109f3565b6104f6565b60405161019793929190610a20565b60405180910390f35b600280546101ad90610a94565b80601f01602080910402602001604051908101604052809291908181526020018280546101d990610a94565b80156102265780601f106101fb57610100808354040283529160200191610226565b820191906000526020600020905b81548152906001019060200180831161020957829003601f168201915b505050505081565b8060019080519060200190610244929190610640565b5050565b600460405180606001604052806001805461026290610a94565b80601f016020809104026020016040519081016040528092919081815260200182805461028e90610a94565b80156102db5780601f106102b0576101008083540402835291602001916102db565b820191906000526020600020905b8154815290600101906020018083116102be57829003601f168201915b50505050508152602001600280546102f290610a94565b80601f016020809104026020016040519081016040528092919081815260200182805461031e90610a94565b801561036b5780601f106103405761010080835404028352916020019161036b565b820191906000526020600020905b81548152906001019060200180831161034e57829003601f168201915b50505050508152602001600354815250908060018154018082558091505060019003906000526020600020906003020160009091909190915060008201518160000190805190602001906103c0929190610640565b5060208201518160010190805190602001906103dd929190610640565b5060408201518160020155505060016000808282546103fc9190610af5565b92505081905550565b6001805461041290610a94565b80601f016020809104026020016040519081016040528092919081815260200182805461043e90610a94565b801561048b5780601f106104605761010080835404028352916020019161048b565b820191906000526020600020905b81548152906001019060200180831161046e57829003601f168201915b505050505081565b8060038190555050565b60035481565b80600290805190602001906104b9929190610640565b5050565b6040518060400160405280601481526020017f4441206265737420526f626f74204d616b65722100000000000000000000000081525081565b6004818154811061050657600080fd5b906000526020600020906003020160009150905080600001805461052990610a94565b80601f016020809104026020016040519081016040528092919081815260200182805461055590610a94565b80156105a25780601f10610577576101008083540402835291602001916105a2565b820191906000526020600020905b81548152906001019060200180831161058557829003601f168201915b5050505050908060010180546105b790610a94565b80601f01602080910402602001604051908101604052809291908181526020018280546105e390610a94565b80156106305780601f1061060557610100808354040283529160200191610630565b820191906000526020600020905b81548152906001019060200180831161061357829003601f168201915b5050505050908060020154905083565b82805461064c90610a94565b90600052602060002090601f01602090048101928261066e57600085556106b5565b82601f1061068757805160ff19168380011785556106b5565b828001600101855582156106b5579182015b828111156106b4578251825591602001919060010190610699565b5b5090506106c291906106c6565b5090565b5b808211156106df5760008160009055506001016106c7565b5090565b600081519050919050565b600082825260208201905092915050565b60005b8381101561071d578082015181840152602081019050610702565b8381111561072c576000848401525b50505050565b6000601f19601f8301169050919050565b600061074e826106e3565b61075881856106ee565b93506107688185602086016106ff565b61077181610732565b840191505092915050565b600060208201905081810360008301526107968184610743565b905092915050565b6000604051905090565b600080fd5b600080fd5b600080fd5b600080fd5b7f4e487b7100000000000000000000000000000000000000000000000000000000600052604160045260246000fd5b6107f482610732565b810181811067ffffffffffffffff82111715610813576108126107bc565b5b80604052505050565b600061082661079e565b905061083282826107eb565b919050565b600067ffffffffffffffff821115610852576108516107bc565b5b61085b82610732565b9050602081019050919050565b82818337600083830152505050565b600061088a61088584610837565b61081c565b9050828152602081018484840111156108a6576108a56107b7565b5b6108b1848285610868565b509392505050565b600082601f8301126108ce576108cd6107b2565b5b81356108de848260208601610877565b91505092915050565b6000602082840312156108fd576108fc6107a8565b5b600082013567ffffffffffffffff81111561091b5761091a6107ad565b5b610927848285016108b9565b91505092915050565b6000819050919050565b61094381610930565b811461094e57600080fd5b50565b6000813590506109608161093a565b92915050565b60006020828403121561097c5761097b6107a8565b5b600061098a84828501610951565b91505092915050565b61099c81610930565b82525050565b60006020820190506109b76000830184610993565b92915050565b6000819050919050565b6109d0816109bd565b81146109db57600080fd5b50565b6000813590506109ed816109c7565b92915050565b600060208284031215610a0957610a086107a8565b5b6000610a17848285016109de565b91505092915050565b60006060820190508181036000830152610a3a8186610743565b90508181036020830152610a4e8185610743565b9050610a5d6040830184610993565b949350505050565b7f4e487b7100000000000000000000000000000000000000000000000000000000600052602260045260246000fd5b60006002820490506001821680610aac57607f821691505b60208210811415610ac057610abf610a65565b5b50919050565b7f4e487b7100000000000000000000000000000000000000000000000000000000600052601160045260246000fd5b6000610b00826109bd565b9150610b0b836109bd565b9250827fffffffffffffffffffffffffffffffffffffffffffffffffffffffffffffffff03821115610b4057610b3f610ac6565b5b82820190509291505056fea26469706673582212200bb728cb03ca07dbacddf67384f957a53d3233c2e401f381f35edc2a1ff15a8964736f6c634300080b0033",
			"opcodes": "PUSH1 0x80 PUSH1 0x40 MSTORE CALLVALUE DUP1 ISZERO PUSH2 0x10 JUMPI PUSH1 0x0 DUP1 REVERT JUMPDEST POP PUSH2 0xB81 DUP1 PUSH2 0x20 PUSH1 0x0 CODECOPY PUSH1 0x0 RETURN INVALID PUSH1 0x80 PUSH1 0x40 MSTORE CALLVALUE DUP1 ISZERO PUSH2 0x10 JUMPI PUSH1 0x0 DUP1 REVERT JUMPDEST POP PUSH1 0x4 CALLDATASIZE LT PUSH2 0x93 JUMPI PUSH1 0x0 CALLDATALOAD PUSH1 0xE0 SHR DUP1 PUSH4 0x8E09DBBE GT PUSH2 0x66 JUMPI DUP1 PUSH4 0x8E09DBBE EQ PUSH2 0xFA JUMPI DUP1 PUSH4 0xA1B757C4 EQ PUSH2 0x116 JUMPI DUP1 PUSH4 0xBF02D3A5 EQ PUSH2 0x134 JUMPI DUP1 PUSH4 0xD90995CB EQ PUSH2 0x150 JUMPI DUP1 PUSH4 0xF797A819 EQ PUSH2 0x16E JUMPI PUSH2 0x93 JUMP JUMPDEST DUP1 PUSH4 0x21107C93 EQ PUSH2 0x98 JUMPI DUP1 PUSH4 0x2CEFEB07 EQ PUSH2 0xB6 JUMPI DUP1 PUSH4 0x55D0D844 EQ PUSH2 0xD2 JUMPI DUP1 PUSH4 0x8BB5C7A3 EQ PUSH2 0xDC JUMPI JUMPDEST PUSH1 0x0 DUP1 REVERT JUMPDEST PUSH2 0xA0 PUSH2 0x1A0 JUMP JUMPDEST PUSH1 0x40 MLOAD PUSH2 0xAD SWAP2 SWAP1 PUSH2 0x77C JUMP JUMPDEST PUSH1 0x40 MLOAD DUP1 SWAP2 SUB SWAP1 RETURN JUMPDEST PUSH2 0xD0 PUSH1 0x4 DUP1 CALLDATASIZE SUB DUP2 ADD SWAP1 PUSH2 0xCB SWAP2 SWAP1 PUSH2 0x8E7 JUMP JUMPDEST PUSH2 0x22E JUMP JUMPDEST STOP JUMPDEST PUSH2 0xDA PUSH2 0x248 JUMP JUMPDEST STOP JUMPDEST PUSH2 0xE4 PUSH2 0x405 JUMP JUMPDEST PUSH1 0x40 MLOAD PUSH2 0xF1 SWAP2 SWAP1 PUSH2 0x77C JUMP JUMPDEST PUSH1 0x40 MLOAD DUP1 SWAP2 SUB SWAP1 RETURN JUMPDEST PUSH2 0x114 PUSH1 0x4 DUP1 CALLDATASIZE SUB DUP2 ADD SWAP1 PUSH2 0x10F SWAP2 SWAP1 PUSH2 0x966 JUMP JUMPDEST PUSH2 0x493 JUMP JUMPDEST STOP JUMPDEST PUSH2 0x11E PUSH2 0x49D JUMP JUMPDEST PUSH1 0x40 MLOAD PUSH2 0x12B SWAP2 SWAP1 PUSH2 0x9A2 JUMP JUMPDEST PUSH1 0x40 MLOAD DUP1 SWAP2 SUB SWAP1 RETURN JUMPDEST PUSH2 0x14E PUSH1 0x4 DUP1 CALLDATASIZE SUB DUP2 ADD SWAP1 PUSH2 0x149 SWAP2 SWAP1 PUSH2 0x8E7 JUMP JUMPDEST PUSH2 0x4A3 JUMP JUMPDEST STOP JUMPDEST PUSH2 0x158 PUSH2 0x4BD JUMP JUMPDEST PUSH1 0x40 MLOAD PUSH2 0x165 SWAP2 SWAP1 PUSH2 0x77C JUMP JUMPDEST PUSH1 0x40 MLOAD DUP1 SWAP2 SUB SWAP1 RETURN JUMPDEST PUSH2 0x188 PUSH1 0x4 DUP1 CALLDATASIZE SUB DUP2 ADD SWAP1 PUSH2 0x183 SWAP2 SWAP1 PUSH2 0x9F3 JUMP JUMPDEST PUSH2 0x4F6 JUMP JUMPDEST PUSH1 0x40 MLOAD PUSH2 0x197 SWAP4 SWAP3 SWAP2 SWAP1 PUSH2 0xA20 JUMP JUMPDEST PUSH1 0x40 MLOAD DUP1 SWAP2 SUB SWAP1 RETURN JUMPDEST PUSH1 0x2 DUP1 SLOAD PUSH2 0x1AD SWAP1 PUSH2 0xA94 JUMP JUMPDEST DUP1 PUSH1 0x1F ADD PUSH1 0x20 DUP1 SWAP2 DIV MUL PUSH1 0x20 ADD PUSH1 0x40 MLOAD SWAP1 DUP2 ADD PUSH1 0x40 MSTORE DUP1 SWAP3 SWAP2 SWAP1 DUP2 DUP2 MSTORE PUSH1 0x20 ADD DUP3 DUP1 SLOAD PUSH2 0x1D9 SWAP1 PUSH2 0xA94 JUMP JUMPDEST DUP1 ISZERO PUSH2 0x226 JUMPI DUP1 PUSH1 0x1F LT PUSH2 0x1FB JUMPI PUSH2 0x100 DUP1 DUP4 SLOAD DIV MUL DUP4 MSTORE SWAP2 PUSH1 0x20 ADD SWAP2 PUSH2 0x226 JUMP JUMPDEST DUP3 ADD SWAP2 SWAP1 PUSH1 0x0 MSTORE PUSH1 0x20 PUSH1 0x0 KECCAK256 SWAP1 JUMPDEST DUP2 SLOAD DUP2 MSTORE SWAP1 PUSH1 0x1 ADD SWAP1 PUSH1 0x20 ADD DUP1 DUP4 GT PUSH2 0x209 JUMPI DUP3 SWAP1 SUB PUSH1 0x1F AND DUP3 ADD SWAP2 JUMPDEST POP POP POP POP POP DUP2 JUMP JUMPDEST DUP1 PUSH1 0x1 SWAP1 DUP1 MLOAD SWAP1 PUSH1 0x20 ADD SWAP1 PUSH2 0x244 SWAP3 SWAP2 SWAP1 PUSH2 0x640 JUMP JUMPDEST POP POP JUMP JUMPDEST PUSH1 0x4 PUSH1 0x40 MLOAD DUP1 PUSH1 0x60 ADD PUSH1 0x40 MSTORE DUP1 PUSH1 0x1 DUP1 SLOAD PUSH2 0x262 SWAP1 PUSH2 0xA94 JUMP JUMPDEST DUP1 PUSH1 0x1F ADD PUSH1 0x20 DUP1 SWAP2 DIV MUL PUSH1 0x20 ADD PUSH1 0x40 MLOAD SWAP1 DUP2 ADD PUSH1 0x40 MSTORE DUP1 SWAP3 SWAP2 SWAP1 DUP2 DUP2 MSTORE PUSH1 0x20 ADD DUP3 DUP1 SLOAD PUSH2 0x28E SWAP1 PUSH2 0xA94 JUMP JUMPDEST DUP1 ISZERO PUSH2 0x2DB JUMPI DUP1 PUSH1 0x1F LT PUSH2 0x2B0 JUMPI PUSH2 0x100 DUP1 DUP4 SLOAD DIV MUL DUP4 MSTORE SWAP2 PUSH1 0x20 ADD SWAP2 PUSH2 0x2DB JUMP JUMPDEST DUP3 ADD SWAP2 SWAP1 PUSH1 0x0 MSTORE PUSH1 0x20 PUSH1 0x0 KECCAK256 SWAP1 JUMPDEST DUP2 SLOAD DUP2 MSTORE SWAP1 PUSH1 0x1 ADD SWAP1 PUSH1 0x20 ADD DUP1 DUP4 GT PUSH2 0x2BE JUMPI DUP3 SWAP1 SUB PUSH1 0x1F AND DUP3 ADD SWAP2 JUMPDEST POP POP POP POP POP DUP2 MSTORE PUSH1 0x20 ADD PUSH1 0x2 DUP1 SLOAD PUSH2 0x2F2 SWAP1 PUSH2 0xA94 JUMP JUMPDEST DUP1 PUSH1 0x1F ADD PUSH1 0x20 DUP1 SWAP2 DIV MUL PUSH1 0x20 ADD PUSH1 0x40 MLOAD SWAP1 DUP2 ADD PUSH1 0x40 MSTORE DUP1 SWAP3 SWAP2 SWAP1 DUP2 DUP2 MSTORE PUSH1 0x20 ADD DUP3 DUP1 SLOAD PUSH2 0x31E SWAP1 PUSH2 0xA94 JUMP JUMPDEST DUP1 ISZERO PUSH2 0x36B JUMPI DUP1 PUSH1 0x1F LT PUSH2 0x340 JUMPI PUSH2 0x100 DUP1 DUP4 SLOAD DIV MUL DUP4 MSTORE SWAP2 PUSH1 0x20 ADD SWAP2 PUSH2 0x36B JUMP JUMPDEST DUP3 ADD SWAP2 SWAP1 PUSH1 0x0 MSTORE PUSH1 0x20 PUSH1 0x0 KECCAK256 SWAP1 JUMPDEST DUP2 SLOAD DUP2 MSTORE SWAP1 PUSH1 0x1 ADD SWAP1 PUSH1 0x20 ADD DUP1 DUP4 GT PUSH2 0x34E JUMPI DUP3 SWAP1 SUB PUSH1 0x1F AND DUP3 ADD SWAP2 JUMPDEST POP POP POP POP POP DUP2 MSTORE PUSH1 0x20 ADD PUSH1 0x3 SLOAD DUP2 MSTORE POP SWAP1 DUP1 PUSH1 0x1 DUP2 SLOAD ADD DUP1 DUP3 SSTORE DUP1 SWAP2 POP POP PUSH1 0x1 SWAP1 SUB SWAP1 PUSH1 0x0 MSTORE PUSH1 0x20 PUSH1 0x0 KECCAK256 SWAP1 PUSH1 0x3 MUL ADD PUSH1 0x0 SWAP1 SWAP2 SWAP1 SWAP2 SWAP1 SWAP2 POP PUSH1 0x0 DUP3 ADD MLOAD DUP2 PUSH1 0x0 ADD SWAP1 DUP1 MLOAD SWAP1 PUSH1 0x20 ADD SWAP1 PUSH2 0x3C0 SWAP3 SWAP2 SWAP1 PUSH2 0x640 JUMP JUMPDEST POP PUSH1 0x20 DUP3 ADD MLOAD DUP2 PUSH1 0x1 ADD SWAP1 DUP1 MLOAD SWAP1 PUSH1 0x20 ADD SWAP1 PUSH2 0x3DD SWAP3 SWAP2 SWAP1 PUSH2 0x640 JUMP JUMPDEST POP PUSH1 0x40 DUP3 ADD MLOAD DUP2 PUSH1 0x2 ADD SSTORE POP POP PUSH1 0x1 PUSH1 0x0 DUP1 DUP3 DUP3 SLOAD PUSH2 0x3FC SWAP2 SWAP1 PUSH2 0xAF5 JUMP JUMPDEST SWAP3 POP POP DUP2 SWAP1 SSTORE POP JUMP JUMPDEST PUSH1 0x1 DUP1 SLOAD PUSH2 0x412 SWAP1 PUSH2 0xA94 JUMP JUMPDEST DUP1 PUSH1 0x1F ADD PUSH1 0x20 DUP1 SWAP2 DIV MUL PUSH1 0x20 ADD PUSH1 0x40 MLOAD SWAP1 DUP2 ADD PUSH1 0x40 MSTORE DUP1 SWAP3 SWAP2 SWAP1 DUP2 DUP2 MSTORE PUSH1 0x20 ADD DUP3 DUP1 SLOAD PUSH2 0x43E SWAP1 PUSH2 0xA94 JUMP JUMPDEST DUP1 ISZERO PUSH2 0x48B JUMPI DUP1 PUSH1 0x1F LT PUSH2 0x460 JUMPI PUSH2 0x100 DUP1 DUP4 SLOAD DIV MUL DUP4 MSTORE SWAP2 PUSH1 0x20 ADD SWAP2 PUSH2 0x48B JUMP JUMPDEST DUP3 ADD SWAP2 SWAP1 PUSH1 0x0 MSTORE PUSH1 0x20 PUSH1 0x0 KECCAK256 SWAP1 JUMPDEST DUP2 SLOAD DUP2 MSTORE SWAP1 PUSH1 0x1 ADD SWAP1 PUSH1 0x20 ADD DUP1 DUP4 GT PUSH2 0x46E JUMPI DUP3 SWAP1 SUB PUSH1 0x1F AND DUP3 ADD SWAP2 JUMPDEST POP POP POP POP POP DUP2 JUMP JUMPDEST DUP1 PUSH1 0x3 DUP2 SWAP1 SSTORE POP POP JUMP JUMPDEST PUSH1 0x3 SLOAD DUP2 JUMP JUMPDEST DUP1 PUSH1 0x2 SWAP1 DUP1 MLOAD SWAP1 PUSH1 0x20 ADD SWAP1 PUSH2 0x4B9 SWAP3 SWAP2 SWAP1 PUSH2 0x640 JUMP JUMPDEST POP POP JUMP JUMPDEST PUSH1 0x40 MLOAD DUP1 PUSH1 0x40 ADD PUSH1 0x40 MSTORE DUP1 PUSH1 0x14 DUP2 MSTORE PUSH1 0x20 ADD PUSH32 0x4441206265737420526F626F74204D616B657221000000000000000000000000 DUP2 MSTORE POP DUP2 JUMP JUMPDEST PUSH1 0x4 DUP2 DUP2 SLOAD DUP2 LT PUSH2 0x506 JUMPI PUSH1 0x0 DUP1 REVERT JUMPDEST SWAP1 PUSH1 0x0 MSTORE PUSH1 0x20 PUSH1 0x0 KECCAK256 SWAP1 PUSH1 0x3 MUL ADD PUSH1 0x0 SWAP2 POP SWAP1 POP DUP1 PUSH1 0x0 ADD DUP1 SLOAD PUSH2 0x529 SWAP1 PUSH2 0xA94 JUMP JUMPDEST DUP1 PUSH1 0x1F ADD PUSH1 0x20 DUP1 SWAP2 DIV MUL PUSH1 0x20 ADD PUSH1 0x40 MLOAD SWAP1 DUP2 ADD PUSH1 0x40 MSTORE DUP1 SWAP3 SWAP2 SWAP1 DUP2 DUP2 MSTORE PUSH1 0x20 ADD DUP3 DUP1 SLOAD PUSH2 0x555 SWAP1 PUSH2 0xA94 JUMP JUMPDEST DUP1 ISZERO PUSH2 0x5A2 JUMPI DUP1 PUSH1 0x1F LT PUSH2 0x577 JUMPI PUSH2 0x100 DUP1 DUP4 SLOAD DIV MUL DUP4 MSTORE SWAP2 PUSH1 0x20 ADD SWAP2 PUSH2 0x5A2 JUMP JUMPDEST DUP3 ADD SWAP2 SWAP1 PUSH1 0x0 MSTORE PUSH1 0x20 PUSH1 0x0 KECCAK256 SWAP1 JUMPDEST DUP2 SLOAD DUP2 MSTORE SWAP1 PUSH1 0x1 ADD SWAP1 PUSH1 0x20 ADD DUP1 DUP4 GT PUSH2 0x585 JUMPI DUP3 SWAP1 SUB PUSH1 0x1F AND DUP3 ADD SWAP2 JUMPDEST POP POP POP POP POP SWAP1 DUP1 PUSH1 0x1 ADD DUP1 SLOAD PUSH2 0x5B7 SWAP1 PUSH2 0xA94 JUMP JUMPDEST DUP1 PUSH1 0x1F ADD PUSH1 0x20 DUP1 SWAP2 DIV MUL PUSH1 0x20 ADD PUSH1 0x40 MLOAD SWAP1 DUP2 ADD PUSH1 0x40 MSTORE DUP1 SWAP3 SWAP2 SWAP1 DUP2 DUP2 MSTORE PUSH1 0x20 ADD DUP3 DUP1 SLOAD PUSH2 0x5E3 SWAP1 PUSH2 0xA94 JUMP JUMPDEST DUP1 ISZERO PUSH2 0x630 JUMPI DUP1 PUSH1 0x1F LT PUSH2 0x605 JUMPI PUSH2 0x100 DUP1 DUP4 SLOAD DIV MUL DUP4 MSTORE SWAP2 PUSH1 0x20 ADD SWAP2 PUSH2 0x630 JUMP JUMPDEST DUP3 ADD SWAP2 SWAP1 PUSH1 0x0 MSTORE PUSH1 0x20 PUSH1 0x0 KECCAK256 SWAP1 JUMPDEST DUP2 SLOAD DUP2 MSTORE SWAP1 PUSH1 0x1 ADD SWAP1 PUSH1 0x20 ADD DUP1 DUP4 GT PUSH2 0x613 JUMPI DUP3 SWAP1 SUB PUSH1 0x1F AND DUP3 ADD SWAP2 JUMPDEST POP POP POP POP POP SWAP1 DUP1 PUSH1 0x2 ADD SLOAD SWAP1 POP DUP4 JUMP JUMPDEST DUP3 DUP1 SLOAD PUSH2 0x64C SWAP1 PUSH2 0xA94 JUMP JUMPDEST SWAP1 PUSH1 0x0 MSTORE PUSH1 0x20 PUSH1 0x0 KECCAK256 SWAP1 PUSH1 0x1F ADD PUSH1 0x20 SWAP1 DIV DUP2 ADD SWAP3 DUP3 PUSH2 0x66E JUMPI PUSH1 0x0 DUP6 SSTORE PUSH2 0x6B5 JUMP JUMPDEST DUP3 PUSH1 0x1F LT PUSH2 0x687 JUMPI DUP1 MLOAD PUSH1 0xFF NOT AND DUP4 DUP1 ADD OR DUP6 SSTORE PUSH2 0x6B5 JUMP JUMPDEST DUP3 DUP1 ADD PUSH1 0x1 ADD DUP6 SSTORE DUP3 ISZERO PUSH2 0x6B5 JUMPI SWAP2 DUP3 ADD JUMPDEST DUP3 DUP2 GT ISZERO PUSH2 0x6B4 JUMPI DUP3 MLOAD DUP3 SSTORE SWAP2 PUSH1 0x20 ADD SWAP2 SWAP1 PUSH1 0x1 ADD SWAP1 PUSH2 0x699 JUMP JUMPDEST JUMPDEST POP SWAP1 POP PUSH2 0x6C2 SWAP2 SWAP1 PUSH2 0x6C6 JUMP JUMPDEST POP SWAP1 JUMP JUMPDEST JUMPDEST DUP1 DUP3 GT ISZERO PUSH2 0x6DF JUMPI PUSH1 0x0 DUP2 PUSH1 0x0 SWAP1 SSTORE POP PUSH1 0x1 ADD PUSH2 0x6C7 JUMP JUMPDEST POP SWAP1 JUMP JUMPDEST PUSH1 0x0 DUP2 MLOAD SWAP1 POP SWAP2 SWAP1 POP JUMP JUMPDEST PUSH1 0x0 DUP3 DUP3 MSTORE PUSH1 0x20 DUP3 ADD SWAP1 POP SWAP3 SWAP2 POP POP JUMP JUMPDEST PUSH1 0x0 JUMPDEST DUP4 DUP2 LT ISZERO PUSH2 0x71D JUMPI DUP1 DUP3 ADD MLOAD DUP2 DUP5 ADD MSTORE PUSH1 0x20 DUP2 ADD SWAP1 POP PUSH2 0x702 JUMP JUMPDEST DUP4 DUP2 GT ISZERO PUSH2 0x72C JUMPI PUSH1 0x0 DUP5 DUP5 ADD MSTORE JUMPDEST POP POP POP POP JUMP JUMPDEST PUSH1 0x0 PUSH1 0x1F NOT PUSH1 0x1F DUP4 ADD AND SWAP1 POP SWAP2 SWAP1 POP JUMP JUMPDEST PUSH1 0x0 PUSH2 0x74E DUP3 PUSH2 0x6E3 JUMP JUMPDEST PUSH2 0x758 DUP2 DUP6 PUSH2 0x6EE JUMP JUMPDEST SWAP4 POP PUSH2 0x768 DUP2 DUP6 PUSH1 0x20 DUP7 ADD PUSH2 0x6FF JUMP JUMPDEST PUSH2 0x771 DUP2 PUSH2 0x732 JUMP JUMPDEST DUP5 ADD SWAP2 POP POP SWAP3 SWAP2 POP POP JUMP JUMPDEST PUSH1 0x0 PUSH1 0x20 DUP3 ADD SWAP1 POP DUP2 DUP2 SUB PUSH1 0x0 DUP4 ADD MSTORE PUSH2 0x796 DUP2 DUP5 PUSH2 0x743 JUMP JUMPDEST SWAP1 POP SWAP3 SWAP2 POP POP JUMP JUMPDEST PUSH1 0x0 PUSH1 0x40 MLOAD SWAP1 POP SWAP1 JUMP JUMPDEST PUSH1 0x0 DUP1 REVERT JUMPDEST PUSH1 0x0 DUP1 REVERT JUMPDEST PUSH1 0x0 DUP1 REVERT JUMPDEST PUSH1 0x0 DUP1 REVERT JUMPDEST PUSH32 0x4E487B7100000000000000000000000000000000000000000000000000000000 PUSH1 0x0 MSTORE PUSH1 0x41 PUSH1 0x4 MSTORE PUSH1 0x24 PUSH1 0x0 REVERT JUMPDEST PUSH2 0x7F4 DUP3 PUSH2 0x732 JUMP JUMPDEST DUP2 ADD DUP2 DUP2 LT PUSH8 0xFFFFFFFFFFFFFFFF DUP3 GT OR ISZERO PUSH2 0x813 JUMPI PUSH2 0x812 PUSH2 0x7BC JUMP JUMPDEST JUMPDEST DUP1 PUSH1 0x40 MSTORE POP POP POP JUMP JUMPDEST PUSH1 0x0 PUSH2 0x826 PUSH2 0x79E JUMP JUMPDEST SWAP1 POP PUSH2 0x832 DUP3 DUP3 PUSH2 0x7EB JUMP JUMPDEST SWAP2 SWAP1 POP JUMP JUMPDEST PUSH1 0x0 PUSH8 0xFFFFFFFFFFFFFFFF DUP3 GT ISZERO PUSH2 0x852 JUMPI PUSH2 0x851 PUSH2 0x7BC JUMP JUMPDEST JUMPDEST PUSH2 0x85B DUP3 PUSH2 0x732 JUMP JUMPDEST SWAP1 POP PUSH1 0x20 DUP2 ADD SWAP1 POP SWAP2 SWAP1 POP JUMP JUMPDEST DUP3 DUP2 DUP4 CALLDATACOPY PUSH1 0x0 DUP4 DUP4 ADD MSTORE POP POP POP JUMP JUMPDEST PUSH1 0x0 PUSH2 0x88A PUSH2 0x885 DUP5 PUSH2 0x837 JUMP JUMPDEST PUSH2 0x81C JUMP JUMPDEST SWAP1 POP DUP3 DUP2 MSTORE PUSH1 0x20 DUP2 ADD DUP5 DUP5 DUP5 ADD GT ISZERO PUSH2 0x8A6 JUMPI PUSH2 0x8A5 PUSH2 0x7B7 JUMP JUMPDEST JUMPDEST PUSH2 0x8B1 DUP5 DUP3 DUP6 PUSH2 0x868 JUMP JUMPDEST POP SWAP4 SWAP3 POP POP POP JUMP JUMPDEST PUSH1 0x0 DUP3 PUSH1 0x1F DUP4 ADD SLT PUSH2 0x8CE JUMPI PUSH2 0x8CD PUSH2 0x7B2 JUMP JUMPDEST JUMPDEST DUP2 CALLDATALOAD PUSH2 0x8DE DUP5 DUP3 PUSH1 0x20 DUP7 ADD PUSH2 0x877 JUMP JUMPDEST SWAP2 POP POP SWAP3 SWAP2 POP POP JUMP JUMPDEST PUSH1 0x0 PUSH1 0x20 DUP3 DUP5 SUB SLT ISZERO PUSH2 0x8FD JUMPI PUSH2 0x8FC PUSH2 0x7A8 JUMP JUMPDEST JUMPDEST PUSH1 0x0 DUP3 ADD CALLDATALOAD PUSH8 0xFFFFFFFFFFFFFFFF DUP2 GT ISZERO PUSH2 0x91B JUMPI PUSH2 0x91A PUSH2 0x7AD JUMP JUMPDEST JUMPDEST PUSH2 0x927 DUP5 DUP3 DUP6 ADD PUSH2 0x8B9 JUMP JUMPDEST SWAP2 POP POP SWAP3 SWAP2 POP POP JUMP JUMPDEST PUSH1 0x0 DUP2 SWAP1 POP SWAP2 SWAP1 POP JUMP JUMPDEST PUSH2 0x943 DUP2 PUSH2 0x930 JUMP JUMPDEST DUP2 EQ PUSH2 0x94E JUMPI PUSH1 0x0 DUP1 REVERT JUMPDEST POP JUMP JUMPDEST PUSH1 0x0 DUP2 CALLDATALOAD SWAP1 POP PUSH2 0x960 DUP2 PUSH2 0x93A JUMP JUMPDEST SWAP3 SWAP2 POP POP JUMP JUMPDEST PUSH1 0x0 PUSH1 0x20 DUP3 DUP5 SUB SLT ISZERO PUSH2 0x97C JUMPI PUSH2 0x97B PUSH2 0x7A8 JUMP JUMPDEST JUMPDEST PUSH1 0x0 PUSH2 0x98A DUP5 DUP3 DUP6 ADD PUSH2 0x951 JUMP JUMPDEST SWAP2 POP POP SWAP3 SWAP2 POP POP JUMP JUMPDEST PUSH2 0x99C DUP2 PUSH2 0x930 JUMP JUMPDEST DUP3 MSTORE POP POP JUMP JUMPDEST PUSH1 0x0 PUSH1 0x20 DUP3 ADD SWAP1 POP PUSH2 0x9B7 PUSH1 0x0 DUP4 ADD DUP5 PUSH2 0x993 JUMP JUMPDEST SWAP3 SWAP2 POP POP JUMP JUMPDEST PUSH1 0x0 DUP2 SWAP1 POP SWAP2 SWAP1 POP JUMP JUMPDEST PUSH2 0x9D0 DUP2 PUSH2 0x9BD JUMP JUMPDEST DUP2 EQ PUSH2 0x9DB JUMPI PUSH1 0x0 DUP1 REVERT JUMPDEST POP JUMP JUMPDEST PUSH1 0x0 DUP2 CALLDATALOAD SWAP1 POP PUSH2 0x9ED DUP2 PUSH2 0x9C7 JUMP JUMPDEST SWAP3 SWAP2 POP POP JUMP JUMPDEST PUSH1 0x0 PUSH1 0x20 DUP3 DUP5 SUB SLT ISZERO PUSH2 0xA09 JUMPI PUSH2 0xA08 PUSH2 0x7A8 JUMP JUMPDEST JUMPDEST PUSH1 0x0 PUSH2 0xA17 DUP5 DUP3 DUP6 ADD PUSH2 0x9DE JUMP JUMPDEST SWAP2 POP POP SWAP3 SWAP2 POP POP JUMP JUMPDEST PUSH1 0x0 PUSH1 0x60 DUP3 ADD SWAP1 POP DUP2 DUP2 SUB PUSH1 0x0 DUP4 ADD MSTORE PUSH2 0xA3A DUP2 DUP7 PUSH2 0x743 JUMP JUMPDEST SWAP1 POP DUP2 DUP2 SUB PUSH1 0x20 DUP4 ADD MSTORE PUSH2 0xA4E DUP2 DUP6 PUSH2 0x743 JUMP JUMPDEST SWAP1 POP PUSH2 0xA5D PUSH1 0x40 DUP4 ADD DUP5 PUSH2 0x993 JUMP JUMPDEST SWAP5 SWAP4 POP POP POP POP JUMP JUMPDEST PUSH32 0x4E487B7100000000000000000000000000000000000000000000000000000000 PUSH1 0x0 MSTORE PUSH1 0x22 PUSH1 0x4 MSTORE PUSH1 0x24 PUSH1 0x0 REVERT JUMPDEST PUSH1 0x0 PUSH1 0x2 DUP3 DIV SWAP1 POP PUSH1 0x1 DUP3 AND DUP1 PUSH2 0xAAC JUMPI PUSH1 0x7F DUP3 AND SWAP2 POP JUMPDEST PUSH1 0x20 DUP3 LT DUP2 EQ ISZERO PUSH2 0xAC0 JUMPI PUSH2 0xABF PUSH2 0xA65 JUMP JUMPDEST JUMPDEST POP SWAP2 SWAP1 POP JUMP JUMPDEST PUSH32 0x4E487B7100000000000000000000000000000000000000000000000000000000 PUSH1 0x0 MSTORE PUSH1 0x11 PUSH1 0x4 MSTORE PUSH1 0x24 PUSH1 0x0 REVERT JUMPDEST PUSH1 0x0 PUSH2 0xB00 DUP3 PUSH2 0x9BD JUMP JUMPDEST SWAP2 POP PUSH2 0xB0B DUP4 PUSH2 0x9BD JUMP JUMPDEST SWAP3 POP DUP3 PUSH32 0xFFFFFFFFFFFFFFFFFFFFFFFFFFFFFFFFFFFFFFFFFFFFFFFFFFFFFFFFFFFFFFFF SUB DUP3 GT ISZERO PUSH2 0xB40 JUMPI PUSH2 0xB3F PUSH2 0xAC6 JUMP JUMPDEST JUMPDEST DUP3 DUP3 ADD SWAP1 POP SWAP3 SWAP2 POP POP JUMP INVALID LOG2 PUSH5 0x6970667358 0x22 SLT KECCAK256 SIGNEXTEND 0xB7 0x28 0xCB SUB 0xCA SMOD 0xDB 0xAC 0xDD 0xF6 PUSH20 0x84F957A53D3233C2E401F381F35EDC2A1FF15A89 PUSH5 0x736F6C6343 STOP ADDMOD SIGNEXTEND STOP CALLER "
		},
		"gasEstimates": {
			"creation": {
				"codeDepositCost": "589000",
				"executionCost": "625",
				"totalCost": "589625"
			},
			"external": {
				"FACTORY_NAME()": "infinite",
				"Roboname()": "infinite",
				"Robotdeploy()": "infinite",
				"Roboversion()": "2451",
				"Robovoice()": "infinite",
				"machine(uint256)": "infinite",
				"setname(string)": "infinite",
				"setversion(int256)": "22520",
				"setvoice(string)": "infinite"
			}
		},
		"methodIdentifiers": {
			"FACTORY_NAME()": "d90995cb",
			"Roboname()": "8bb5c7a3",
			"Robotdeploy()": "55d0d844",
			"Roboversion()": "a1b757c4",
			"Robovoice()": "21107c93",
			"machine(uint256)": "f797a819",
			"setname(string)": "2cefeb07",
			"setversion(int256)": "8e09dbbe",
			"setvoice(string)": "bf02d3a5"
		}
	},
	"abi": [
		{
			"inputs": [],
			"name": "FACTORY_NAME",
			"outputs": [
				{
					"internalType": "string",
					"name": "",
					"type": "string"
				}
			],
			"stateMutability": "view",
			"type": "function"
		},
		{
			"inputs": [],
			"name": "Roboname",
			"outputs": [
				{
					"internalType": "string",
					"name": "",
					"type": "string"
				}
			],
			"stateMutability": "view",
			"type": "function"
		},
		{
			"inputs": [],
			"name": "Robotdeploy",
			"outputs": [],
			"stateMutability": "nonpayable",
			"type": "function"
		},
		{
			"inputs": [],
			"name": "Roboversion",
			"outputs": [
				{
					"internalType": "int256",
					"name": "",
					"type": "int256"
				}
			],
			"stateMutability": "view",
			"type": "function"
		},
		{
			"inputs": [],
			"name": "Robovoice",
			"outputs": [
				{
					"internalType": "string",
					"name": "",
					"type": "string"
				}
			],
			"stateMutability": "view",
			"type": "function"
		},
		{
			"inputs": [
				{
					"internalType": "uint256",
					"name": "",
					"type": "uint256"
				}
			],
			"name": "machine",
			"outputs": [
				{
					"internalType": "string",
					"name": "model",
					"type": "string"
				},
				{
					"internalType": "string",
					"name": "voice",
					"type": "string"
				},
				{
					"internalType": "int256",
					"name": "version",
					"type": "int256"
				}
			],
			"stateMutability": "view",
			"type": "function"
		},
		{
			"inputs": [
				{
					"internalType": "string",
					"name": "_value",
					"type": "string"
				}
			],
			"name": "setname",
			"outputs": [],
			"stateMutability": "nonpayable",
			"type": "function"
		},
		{
			"inputs": [
				{
					"internalType": "int256",
					"name": "userInput",
					"type": "int256"
				}
			],
			"name": "setversion",
			"outputs": [],
			"stateMutability": "nonpayable",
			"type": "function"
		},
		{
			"inputs": [
				{
					"internalType": "string",
					"name": "_value2",
					"type": "string"
				}
			],
			"name": "setvoice",
			"outputs": [],
			"stateMutability": "nonpayable",
			"type": "function"
		}
	]
}